8=FIX.4.2|9=52|35=A|49=CLIENT|56=BROKER|34=1|52=2026-07-05T13:20|98=0|108=30|10=200|
