8=FIX.4.2|9=63|35=A|49=CLIENT|56=BROKER|34=1|52=20260705-13:20:00|98=0|108=30|10=000|
