8=FIX.4.4|9=131|35=8|49=BROKER|56=CLIENT|34=3|52=20260705-13:20:02|37=EX55501|17=E0001|150=0|39=0|11=ORD10001|55=AAPL|54=1|38=100|14=0|6=0|151=100|10=186|
