8=FIXT.1.1|9=70|35=A|49=CLIENT|56=BROKER|34=1|52=20260705-13:20:00|98=0|108=30|1137=9|10=064|
