8=FIX.4.2|9=63|35=A|49=CLIENT|56=BROKER|34=1|52=20260705-13:20:00|98=0|108=30|10=175|
8=FIX.4.2|9=119|35=D|49=CLIENT|56=BROKER|34=2|52=20260705-13:20:01|11=ORD10001|55=AAPL|54=1|60=20260705-13:20:01|40=2|38=100|44=195.50|10=202|
