# Left: valid. The second line has a hand-edited (wrong) CheckSum.
8=FIX.4.2|9=66|35=A|49=BUYSIDE|56=SELLSIDE|34=1|52=20260706-09:30:00|98=0|108=30|10=159|
8=FIX.4.2|9=66|35=A|49=BUYSIDE|56=SELLSIDE|34=1|52=20260706-09:30:00|98=0|108=30|10=123|
