# FIX.4.4 ExecutionReport (trade fill)
8=FIX.4.4|9=142|35=8|49=SELLSIDE|56=BUYSIDE|34=5|52=20260706-09:30:06|37=EXEC-44001|17=FILL-9|150=F|39=2|55=NVDA|54=1|38=200|14=200|6=1180.50|151=0|11=ORD-44|10=217|
