# Clean FIX.4.2 session: Logon, NewOrderSingle, ExecutionReport, Logout
8=FIX.4.2|9=66|35=A|49=BUYSIDE|56=SELLSIDE|34=1|52=20260706-09:30:00|98=0|108=30|10=159|
8=FIX.4.2|9=128|35=D|49=BUYSIDE|56=SELLSIDE|34=2|52=20260706-09:30:05|11=ORD-77012|55=MSFT|54=1|60=20260706-09:30:05|40=2|38=500|44=410.25|59=0|10=246|
8=FIX.4.2|9=144|35=8|49=SELLSIDE|56=BUYSIDE|34=3|52=20260706-09:30:06|37=EXEC-33001|17=FILL-1|150=2|39=2|55=MSFT|54=1|38=500|14=500|6=410.25|151=0|11=ORD-77012|10=054|
8=FIX.4.2|9=54|35=5|49=BUYSIDE|56=SELLSIDE|34=4|52=20260706-16:00:00|10=117|
