# Session with injected errors for reject-reason triage
8=FIX.4.2|9=66|35=A|49=BUYSIDE|56=SELLSIDE|34=1|52=20260706-09:30:00|98=0|108=30|10=159|
8=FIX.4.2|9=66|35=A|49=BUYSIDE|56=SELLSIDE|34=1|52=20260706-09:30:00|98=0|108=30|10=000|
8=FIX.4.2|9=87|35=D|49=BUYSIDE|56=SELLSIDE|34=9|52=20260706-09:31:00|11=ORD-9|55=TSLA|54=1|40=2|38=10|10=018|
8=FIX.4.2|9=110|35=D|49=BUYSIDE|56=SELLSIDE|34=10|52=20260706-09:31:05|11=ORD-10|55=TSLA|54=7|60=20260706-09:31:05|40=Z|38=10|10=198|
