8=FIX.4.2|9=66|35=A|49=BUYSIDE|56=SELLSIDE|34=1|52=20260706-09:30:00|98=0|108=30|10=159|
8=FIX.4.2|9=128|35=D|49=BUYSIDE|56=SELLSIDE|34=2|52=20260706-09:30:05|11=ORD-77012|55=MSFT|54=1|60=20260706-09:30:05|40=2|38=500|44=410.25|59=0|10=246|
